:100000000C9434000C9472000C9472000C947200E6
:100010000C9472000C9472000C9472000C94720098
:100020000C9472000C9472000C9472000C94720088
:100030000C9472000C9472000C9472000C94720078
:100040000C9472000C9472000C9472000C94720068
:100050000C9472000C9472000C9472000C94720058
:100060000C9472000C94720011241FBECFEFD8E0E4
:10007000DEBFCDBF0E9440000C946300F894FFCF18
:1000800084B18E6384B92098289AC0E0D0E08FE9CB
:100090009FE00197F1F700C0000021962D982C9861
:1000A0002B982A9829980E946E00882331F0C11558
:1000B0009DE7D90714F4C0E0DDE72D9A299A2C9822
:0600C0002B982A98E4CF02
:1000C600EC010E9477000E947600CE010E94780023
:0600D600CE010E9474003F
:0800DC0083B180958170089545
:0400E4000C94000078
:0400E8000E943E0034
:0200EC00089575
:0200EE00089573
:0200F000089571
:00000001FF
